{
  "contractName": "Bidify",
  "abi": [
    {
      "inputs": [],
      "stateMutability": "nonpayable",
      "type": "constructor"
    },
    {
      "anonymous": false,
      "inputs": [
        {
          "indexed": true,
          "internalType": "uint64",
          "name": "id",
          "type": "uint64"
        },
        {
          "indexed": false,
          "internalType": "uint256",
          "name": "time",
          "type": "uint256"
        }
      ],
      "name": "AuctionExtended",
      "type": "event"
    },
    {
      "anonymous": false,
      "inputs": [
        {
          "indexed": true,
          "internalType": "uint64",
          "name": "id",
          "type": "uint64"
        },
        {
          "indexed": true,
          "internalType": "address",
          "name": "nftRecipient",
          "type": "address"
        },
        {
          "indexed": false,
          "internalType": "uint256",
          "name": "price",
          "type": "uint256"
        }
      ],
      "name": "AuctionFinished",
      "type": "event"
    },
    {
      "anonymous": false,
      "inputs": [
        {
          "indexed": true,
          "internalType": "uint64",
          "name": "id",
          "type": "uint64"
        },
        {
          "indexed": true,
          "internalType": "address",
          "name": "bidder",
          "type": "address"
        },
        {
          "indexed": false,
          "internalType": "uint256",
          "name": "price",
          "type": "uint256"
        }
      ],
      "name": "Bid",
      "type": "event"
    },
    {
      "anonymous": false,
      "inputs": [
        {
          "indexed": true,
          "internalType": "uint64",
          "name": "id",
          "type": "uint64"
        },
        {
          "indexed": true,
          "internalType": "address",
          "name": "creator",
          "type": "address"
        },
        {
          "indexed": false,
          "internalType": "address",
          "name": "currency",
          "type": "address"
        },
        {
          "indexed": true,
          "internalType": "address",
          "name": "platform",
          "type": "address"
        },
        {
          "indexed": false,
          "internalType": "uint256",
          "name": "token",
          "type": "uint256"
        },
        {
          "indexed": false,
          "internalType": "uint256",
          "name": "price",
          "type": "uint256"
        },
        {
          "indexed": false,
          "internalType": "uint8",
          "name": "timeInDays",
          "type": "uint8"
        },
        {
          "indexed": false,
          "internalType": "address",
          "name": "referrer",
          "type": "address"
        }
      ],
      "name": "ListingCreated",
      "type": "event"
    },
    {
      "anonymous": false,
      "inputs": [
        {
          "indexed": true,
          "internalType": "address",
          "name": "previousOwner",
          "type": "address"
        },
        {
          "indexed": true,
          "internalType": "address",
          "name": "newOwner",
          "type": "address"
        }
      ],
      "name": "OwnershipTransferred",
      "type": "event"
    },
    {
      "stateMutability": "payable",
      "type": "fallback",
      "payable": true
    },
    {
      "inputs": [],
      "name": "owner",
      "outputs": [
        {
          "internalType": "address",
          "name": "",
          "type": "address"
        }
      ],
      "stateMutability": "view",
      "type": "function",
      "constant": true
    },
    {
      "inputs": [],
      "name": "renounceOwnership",
      "outputs": [],
      "stateMutability": "nonpayable",
      "type": "function"
    },
    {
      "inputs": [
        {
          "internalType": "address",
          "name": "newOwner",
          "type": "address"
        }
      ],
      "name": "transferOwnership",
      "outputs": [],
      "stateMutability": "nonpayable",
      "type": "function"
    },
    {
      "stateMutability": "payable",
      "type": "receive",
      "payable": true
    },
    {
      "inputs": [
        {
          "internalType": "bytes4",
          "name": "interfaceId",
          "type": "bytes4"
        }
      ],
      "name": "supportsInterface",
      "outputs": [
        {
          "internalType": "bool",
          "name": "",
          "type": "bool"
        }
      ],
      "stateMutability": "pure",
      "type": "function",
      "constant": true
    },
    {
      "inputs": [
        {
          "internalType": "address",
          "name": "operator",
          "type": "address"
        },
        {
          "internalType": "address",
          "name": "",
          "type": "address"
        },
        {
          "internalType": "uint256",
          "name": "tokenId",
          "type": "uint256"
        },
        {
          "internalType": "bytes",
          "name": "",
          "type": "bytes"
        }
      ],
      "name": "onERC721Received",
      "outputs": [
        {
          "internalType": "bytes4",
          "name": "",
          "type": "bytes4"
        }
      ],
      "stateMutability": "nonpayable",
      "type": "function"
    },
    {
      "inputs": [
        {
          "internalType": "address",
          "name": "currency",
          "type": "address"
        }
      ],
      "name": "getPriceUnit",
      "outputs": [
        {
          "internalType": "uint256",
          "name": "",
          "type": "uint256"
        }
      ],
      "stateMutability": "view",
      "type": "function",
      "constant": true
    },
    {
      "inputs": [
        {
          "internalType": "address",
          "name": "account",
          "type": "address"
        }
      ],
      "name": "balanceOf",
      "outputs": [
        {
          "internalType": "uint256",
          "name": "",
          "type": "uint256"
        }
      ],
      "stateMutability": "view",
      "type": "function",
      "constant": true
    },
    {
      "inputs": [
        {
          "internalType": "address",
          "name": "account",
          "type": "address"
        }
      ],
      "name": "withdraw",
      "outputs": [],
      "stateMutability": "nonpayable",
      "type": "function"
    },
    {
      "inputs": [
        {
          "internalType": "uint256",
          "name": "id",
          "type": "uint256"
        }
      ],
      "name": "getListing",
      "outputs": [
        {
          "components": [
            {
              "internalType": "address",
              "name": "creator",
              "type": "address"
            },
            {
              "internalType": "address",
              "name": "currency",
              "type": "address"
            },
            {
              "internalType": "contract IERC721",
              "name": "platform",
              "type": "address"
            },
            {
              "internalType": "uint256",
              "name": "token",
              "type": "uint256"
            },
            {
              "internalType": "uint256",
              "name": "price",
              "type": "uint256"
            },
            {
              "internalType": "address",
              "name": "referrer",
              "type": "address"
            },
            {
              "internalType": "bool",
              "name": "allowMarketplace",
              "type": "bool"
            },
            {
              "internalType": "address",
              "name": "marketplace",
              "type": "address"
            },
            {
              "internalType": "address",
              "name": "highBidder",
              "type": "address"
            },
            {
              "internalType": "uint256",
              "name": "endTime",
              "type": "uint256"
            },
            {
              "internalType": "bool",
              "name": "paidOut",
              "type": "bool"
            }
          ],
          "internalType": "struct Bidify.Listing",
          "name": "",
          "type": "tuple"
        }
      ],
      "stateMutability": "view",
      "type": "function",
      "constant": true
    },
    {
      "inputs": [
        {
          "internalType": "address",
          "name": "currency",
          "type": "address"
        },
        {
          "internalType": "contract IERC721",
          "name": "platform",
          "type": "address"
        },
        {
          "internalType": "uint256",
          "name": "token",
          "type": "uint256"
        },
        {
          "internalType": "uint256",
          "name": "price",
          "type": "uint256"
        },
        {
          "internalType": "uint8",
          "name": "timeInDays",
          "type": "uint8"
        },
        {
          "internalType": "address",
          "name": "referrer",
          "type": "address"
        },
        {
          "internalType": "bool",
          "name": "allowMarketplace",
          "type": "bool"
        }
      ],
      "name": "list",
      "outputs": [
        {
          "internalType": "uint64",
          "name": "",
          "type": "uint64"
        }
      ],
      "stateMutability": "nonpayable",
      "type": "function"
    },
    {
      "inputs": [
        {
          "internalType": "uint64",
          "name": "id",
          "type": "uint64"
        }
      ],
      "name": "getNextBid",
      "outputs": [
        {
          "internalType": "uint256",
          "name": "",
          "type": "uint256"
        }
      ],
      "stateMutability": "view",
      "type": "function",
      "constant": true
    },
    {
      "inputs": [
        {
          "internalType": "uint64",
          "name": "id",
          "type": "uint64"
        },
        {
          "internalType": "address",
          "name": "marketplace",
          "type": "address"
        },
        {
          "internalType": "uint256",
          "name": "amount",
          "type": "uint256"
        }
      ],
      "name": "bid",
      "outputs": [],
      "stateMutability": "payable",
      "type": "function",
      "payable": true
    },
    {
      "inputs": [
        {
          "internalType": "uint64",
          "name": "id",
          "type": "uint64"
        }
      ],
      "name": "finish",
      "outputs": [],
      "stateMutability": "nonpayable",
      "type": "function"
    }
  ],
  "bytecode": "0x60806040523480156200001157600080fd5b50600160008190555060006200002c620000d160201b60201c565b905080600160006101000a81548173ffffffffffffffffffffffffffffffffffffffff021916908373ffffffffffffffffffffffffffffffffffffffff1602179055508073ffffffffffffffffffffffffffffffffffffffff16600073ffffffffffffffffffffffffffffffffffffffff167f8be0079c531659141344cd1fd0a4f28419497f9722a3daafe3b4186f6b6457e060405160405180910390a350620000d9565b600033905090565b613cda80620000e96000396000f3fe6080604052600436106100c65760003560e01c806370a082311161007f5780638da5cb5b116100595780638da5cb5b1461029b578063b4fb66d6146102c6578063d5523afc14610303578063f2fde38b14610340576100d8565b806370a082311461020a578063715018a61461024757806384f2dc331461025e576100d8565b806301ffc9a7146100e5578063107a274a14610122578063150b7a021461015f5780632d4e3e821461019c57806343cf2f0b146101b857806351cff8d9146101e1576100d8565b366100d85760006100d657600080fd5b005b60006100e357600080fd5b005b3480156100f157600080fd5b5061010c600480360381019061010791906129b1565b610369565b6040516101199190613372565b60405180910390f35b34801561012e57600080fd5b50610149600480360381019061014491906129da565b61039b565b6040516101569190613645565b60405180910390f35b34801561016b57600080fd5b506101866004803603810190610181919061286a565b610621565b604051610193919061338d565b60405180910390f35b6101b660048036038101906101b19190612a2c565b6106ab565b005b3480156101c457600080fd5b506101df60048036038101906101da9190612a03565b610b69565b005b3480156101ed57600080fd5b5061020860048036038101906102039190612841565b6111a2565b005b34801561021657600080fd5b50610231600480360381019061022c9190612841565b6112fc565b60405161023e9190613661565b60405180910390f35b34801561025357600080fd5b5061025c611345565b005b34801561026a57600080fd5b5061028560048036038101906102809190612a03565b611482565b6040516102929190613661565b60405180910390f35b3480156102a757600080fd5b506102b06117a0565b6040516102bd91906132a4565b60405180910390f35b3480156102d257600080fd5b506102ed60048036038101906102e89190612841565b6117ca565b6040516102fa9190613661565b60405180910390f35b34801561030f57600080fd5b5061032a600480360381019061032591906128ea565b6118e0565b604051610337919061367c565b60405180910390f35b34801561034c57600080fd5b5061036760048036038101906103629190612841565b611f81565b005b600063150b7a0260e01b827bffffffffffffffffffffffffffffffffffffffffffffffffffffffff1916149050919050565b6103a3612658565b60036000838152602001908152602001600020604051806101600160405290816000820160009054906101000a900473ffffffffffffffffffffffffffffffffffffffff1673ffffffffffffffffffffffffffffffffffffffff1673ffffffffffffffffffffffffffffffffffffffff1681526020016001820160009054906101000a900473ffffffffffffffffffffffffffffffffffffffff1673ffffffffffffffffffffffffffffffffffffffff1673ffffffffffffffffffffffffffffffffffffffff1681526020016002820160009054906101000a900473ffffffffffffffffffffffffffffffffffffffff1673ffffffffffffffffffffffffffffffffffffffff1673ffffffffffffffffffffffffffffffffffffffff16815260200160038201548152602001600482015481526020016005820160009054906101000a900473ffffffffffffffffffffffffffffffffffffffff1673ffffffffffffffffffffffffffffffffffffffff1673ffffffffffffffffffffffffffffffffffffffff1681526020016005820160149054906101000a900460ff161515151581526020016006820160009054906101000a900473ffffffffffffffffffffffffffffffffffffffff1673ffffffffffffffffffffffffffffffffffffffff1673ffffffffffffffffffffffffffffffffffffffff1681526020016007820160009054906101000a900473ffffffffffffffffffffffffffffffffffffffff1673ffffffffffffffffffffffffffffffffffffffff1673ffffffffffffffffffffffffffffffffffffffff168152602001600882015481526020016009820160009054906101000a900460ff1615151515815250509050919050565b60003073ffffffffffffffffffffffffffffffffffffffff168673ffffffffffffffffffffffffffffffffffffffff1614610691576040517f08c379a000000000000000000000000000000000000000000000000000000000815260040161068890613545565b60405180910390fd5b8360058190555063150b7a0260e01b905095945050505050565b600260005414156106f1576040517f08c379a00000000000000000000000000000000000000000000000000000000081526004016106e890613625565b60405180910390fd5b6002600081905550600460009054906101000a900467ffffffffffffffff1667ffffffffffffffff168367ffffffffffffffff1610610765576040517f08c379a000000000000000000000000000000000000000000000000000000000815260040161075c906134c5565b60405180910390fd5b6000600360008567ffffffffffffffff16815260200190815260200160002090503373ffffffffffffffffffffffffffffffffffffffff168160070160009054906101000a900473ffffffffffffffffffffffffffffffffffffffff1673ffffffffffffffffffffffffffffffffffffffff161415610819576040517f08c379a000000000000000000000000000000000000000000000000000000000815260040161081090613405565b60405180910390fd5b8060080154421061085f576040517f08c379a000000000000000000000000000000000000000000000000000000000815260040161085690613585565b60405180910390fd5b8060050160149054906101000a900460ff166108e557600073ffffffffffffffffffffffffffffffffffffffff168373ffffffffffffffffffffffffffffffffffffffff16146108e4576040517f08c379a00000000000000000000000000000000000000000000000000000000081526004016108db90613525565b60405180910390fd5b5b60006108f085611482565b9050828110610934576040517f08c379a000000000000000000000000000000000000000000000000000000000815260040161092b906134e5565b60405180910390fd5b6109628260010160009054906101000a900473ffffffffffffffffffffffffffffffffffffffff168461212d565b60008260040154905060008360070160009054906101000a900473ffffffffffffffffffffffffffffffffffffffff169050848460040181905550338460070160006101000a81548173ffffffffffffffffffffffffffffffffffffffff021916908373ffffffffffffffffffffffffffffffffffffffff160217905550858460060160006101000a81548173ffffffffffffffffffffffffffffffffffffffff021916908373ffffffffffffffffffffffffffffffffffffffff1602179055503373ffffffffffffffffffffffffffffffffffffffff168767ffffffffffffffff167fdbf5dea084c6b3ed344cc0976b2643f2c9a3400350e04162ea3f7302c16ee9148660040154604051610a789190613661565b60405180910390a3836008015460b442610a9291906136c9565b1115610af45760b442610aa591906136c9565b84600801819055508667ffffffffffffffff167fb4a60ebc2cf1c50677776bb7f2aea10caa932a042d60d2ac4697ef6d9cb8afb08560080154604051610aeb9190613661565b60405180910390a25b600073ffffffffffffffffffffffffffffffffffffffff168173ffffffffffffffffffffffffffffffffffffffff1614610b5857610b578460010160009054906101000a900473ffffffffffffffffffffffffffffffffffffffff1682846121db565b5b505050506001600081905550505050565b60026000541415610baf576040517f08c379a0000000000000000000000000000000000000000000000000000000008152600401610ba690613625565b60405180910390fd5b6002600081905550600460009054906101000a900467ffffffffffffffff1667ffffffffffffffff168167ffffffffffffffff1610610c23576040517f08c379a0000000000000000000000000000000000000000000000000000000008152600401610c1a906134c5565b60405180910390fd5b6000600360008367ffffffffffffffff16815260200190815260200160002090504281600801541115610c8b576040517f08c379a0000000000000000000000000000000000000000000000000000000008152600401610c8290613445565b60405180910390fd5b8060090160009054906101000a900460ff1615610cdd576040517f08c379a0000000000000000000000000000000000000000000000000000000008152600401610cd4906134a5565b60405180910390fd5b60018160090160006101000a81548160ff02191690831515021790555060008082600401549050600073ffffffffffffffffffffffffffffffffffffffff168360070160009054906101000a900473ffffffffffffffffffffffffffffffffffffffff1673ffffffffffffffffffffffffffffffffffffffff161461107857600060198460040154610d6f919061375d565b90506000819050600073ffffffffffffffffffffffffffffffffffffffff168560050160009054906101000a900473ffffffffffffffffffffffffffffffffffffffff1673ffffffffffffffffffffffffffffffffffffffff1614610ef657600281610ddb919061375d565b90506000819050600073ffffffffffffffffffffffffffffffffffffffff168660060160009054906101000a900473ffffffffffffffffffffffffffffffffffffffff1673ffffffffffffffffffffffffffffffffffffffff1614610e9d57600281610e47919061375d565b9050610e9c8660010160009054906101000a900473ffffffffffffffffffffffffffffffffffffffff168760060160009054906101000a900473ffffffffffffffffffffffffffffffffffffffff16836121db565b5b610ef08660010160009054906101000a900473ffffffffffffffffffffffffffffffffffffffff168760050160009054906101000a900473ffffffffffffffffffffffffffffffffffffffff16836121db565b50610fb2565b600073ffffffffffffffffffffffffffffffffffffffff168560060160009054906101000a900473ffffffffffffffffffffffffffffffffffffffff1673ffffffffffffffffffffffffffffffffffffffff1614610fb157600281610f5b919061375d565b9050610fb08560010160009054906101000a900473ffffffffffffffffffffffffffffffffffffffff168660060160009054906101000a900473ffffffffffffffffffffffffffffffffffffffff16836121db565b5b5b610fe88560010160009054906101000a900473ffffffffffffffffffffffffffffffffffffffff16610fe26117a0565b836121db565b61104a8560010160009054906101000a900473ffffffffffffffffffffffffffffffffffffffff168660000160009054906101000a900473ffffffffffffffffffffffffffffffffffffffff1684886004015461104591906139e1565b6121db565b8460070160009054906101000a900473ffffffffffffffffffffffffffffffffffffffff16935050506110a4565b8260000160009054906101000a900473ffffffffffffffffffffffffffffffffffffffff169150600090505b8260020160009054906101000a900473ffffffffffffffffffffffffffffffffffffffff1673ffffffffffffffffffffffffffffffffffffffff166342842e0e308486600301546040518463ffffffff1660e01b8152600401611109939291906132bf565b600060405180830381600087803b15801561112357600080fd5b505af1158015611137573d6000803e3d6000fd5b505050508173ffffffffffffffffffffffffffffffffffffffff168467ffffffffffffffff167fb78855d635dc85f7e40710ac78f3e31deb7f450cde53401783bc430e49cb22ce8360405161118c9190613661565b60405180910390a3505050600160008190555050565b600260005414156111e8576040517f08c379a00000000000000000000000000000000000000000000000000000000081526004016111df90613625565b60405180910390fd5b60026000819055506000600260008373ffffffffffffffffffffffffffffffffffffffff1673ffffffffffffffffffffffffffffffffffffffff1681526020019081526020016000205490506000600260008473ffffffffffffffffffffffffffffffffffffffff1673ffffffffffffffffffffffffffffffffffffffff1681526020019081526020016000208190555060008273ffffffffffffffffffffffffffffffffffffffff168260405161129f9061328f565b60006040518083038185875af1925050503d80600081146112dc576040519150601f19603f3d011682016040523d82523d6000602084013e6112e1565b606091505b50509050806112ef57600080fd5b5050600160008190555050565b6000600260008373ffffffffffffffffffffffffffffffffffffffff1673ffffffffffffffffffffffffffffffffffffffff168152602001908152602001600020549050919050565b61134d6122d4565b73ffffffffffffffffffffffffffffffffffffffff1661136b6117a0565b73ffffffffffffffffffffffffffffffffffffffff16146113c1576040517f08c379a00000000000000000000000000000000000000000000000000000000081526004016113b890613565565b60405180910390fd5b600073ffffffffffffffffffffffffffffffffffffffff16600160009054906101000a900473ffffffffffffffffffffffffffffffffffffffff1673ffffffffffffffffffffffffffffffffffffffff167f8be0079c531659141344cd1fd0a4f28419497f9722a3daafe3b4186f6b6457e060405160405180910390a36000600160006101000a81548173ffffffffffffffffffffffffffffffffffffffff021916908373ffffffffffffffffffffffffffffffffffffffff160217905550565b600080600360008467ffffffffffffffff168152602001908152602001600020604051806101600160405290816000820160009054906101000a900473ffffffffffffffffffffffffffffffffffffffff1673ffffffffffffffffffffffffffffffffffffffff1673ffffffffffffffffffffffffffffffffffffffff1681526020016001820160009054906101000a900473ffffffffffffffffffffffffffffffffffffffff1673ffffffffffffffffffffffffffffffffffffffff1673ffffffffffffffffffffffffffffffffffffffff1681526020016002820160009054906101000a900473ffffffffffffffffffffffffffffffffffffffff1673ffffffffffffffffffffffffffffffffffffffff1673ffffffffffffffffffffffffffffffffffffffff16815260200160038201548152602001600482015481526020016005820160009054906101000a900473ffffffffffffffffffffffffffffffffffffffff1673ffffffffffffffffffffffffffffffffffffffff1673ffffffffffffffffffffffffffffffffffffffff1681526020016005820160149054906101000a900460ff161515151581526020016006820160009054906101000a900473ffffffffffffffffffffffffffffffffffffffff1673ffffffffffffffffffffffffffffffffffffffff1673ffffffffffffffffffffffffffffffffffffffff1681526020016007820160009054906101000a900473ffffffffffffffffffffffffffffffffffffffff1673ffffffffffffffffffffffffffffffffffffffff1673ffffffffffffffffffffffffffffffffffffffff168152602001600882015481526020016009820160009054906101000a900460ff1615151515815250509050600073ffffffffffffffffffffffffffffffffffffffff1681610100015173ffffffffffffffffffffffffffffffffffffffff16141561174f57806080015191505061179b565b600061175e82602001516117ca565b9050808160148460800151611773919061375d565b846080015161178291906136c9565b61178c919061375d565b6117969190613987565b925050505b919050565b6000600160009054906101000a900473ffffffffffffffffffffffffffffffffffffffff16905090565b60008073ffffffffffffffffffffffffffffffffffffffff168273ffffffffffffffffffffffffffffffffffffffff161415611821576004601261180e9190613a15565b600a61181a919061382c565b90506118db565b60008273ffffffffffffffffffffffffffffffffffffffff1663313ce5676040518163ffffffff1660e01b815260040160206040518083038186803b15801561186957600080fd5b505afa15801561187d573d6000803e3d6000fd5b505050506040513d601f19601f820116820180604052508101906118a19190612a7b565b60ff169050600460ff1681116118bb5760019150506118db565b600460ff16816118cb91906139e1565b600a6118d791906137e1565b9150505b919050565b600060026000541415611928576040517f08c379a000000000000000000000000000000000000000000000000000000000815260040161191f90613625565b60405180910390fd5b60026000819055508673ffffffffffffffffffffffffffffffffffffffff166301ffc9a76380ac58cd6040518263ffffffff1660e01b815260040161196d91906133a8565b60206040518083038186803b15801561198557600080fd5b505afa158015611999573d6000803e3d6000fd5b505050506040513d601f19601f820116820180604052508101906119bd9190612988565b6119fc576040517f08c379a00000000000000000000000000000000000000000000000000000000081526004016119f3906135a5565b60405180910390fd5b6000611a07896117ca565b9050806014611a169190613987565b861015611a58576040517f08c379a0000000000000000000000000000000000000000000000000000000008152600401611a4f906135e5565b60405180910390fd5b85818288611a66919061375d565b611a709190613987565b14611ab0576040517f08c379a0000000000000000000000000000000000000000000000000000000008152600401611aa790613465565b60405180910390fd5b601e8560ff161115611af7576040517f08c379a0000000000000000000000000000000000000000000000000000000008152600401611aee906133e5565b60405180910390fd5b6000600460009054906101000a900467ffffffffffffffff1690506001600460009054906101000a900467ffffffffffffffff16611b35919061371f565b600460006101000a81548167ffffffffffffffff021916908367ffffffffffffffff1602179055508873ffffffffffffffffffffffffffffffffffffffff166342842e0e33308b6040518463ffffffff1660e01b8152600401611b9a939291906132bf565b600060405180830381600087803b158015611bb457600080fd5b505af1158015611bc8573d6000803e3d6000fd5b505050506040518061016001604052803373ffffffffffffffffffffffffffffffffffffffff1681526020018b73ffffffffffffffffffffffffffffffffffffffff1681526020018a73ffffffffffffffffffffffffffffffffffffffff16815260200160055481526020018881526020018673ffffffffffffffffffffffffffffffffffffffff1681526020018515158152602001600073ffffffffffffffffffffffffffffffffffffffff168152602001600073ffffffffffffffffffffffffffffffffffffffff168152602001620151808860ff16611caa919061394a565b62ffffff1642611cba91906136c9565b815260200160001515815250600360008367ffffffffffffffff16815260200190815260200160002060008201518160000160006101000a81548173ffffffffffffffffffffffffffffffffffffffff021916908373ffffffffffffffffffffffffffffffffffffffff16021790555060208201518160010160006101000a81548173ffffffffffffffffffffffffffffffffffffffff021916908373ffffffffffffffffffffffffffffffffffffffff16021790555060408201518160020160006101000a81548173ffffffffffffffffffffffffffffffffffffffff021916908373ffffffffffffffffffffffffffffffffffffffff160217905550606082015181600301556080820151816004015560a08201518160050160006101000a81548173ffffffffffffffffffffffffffffffffffffffff021916908373ffffffffffffffffffffffffffffffffffffffff16021790555060c08201518160050160146101000a81548160ff02191690831515021790555060e08201518160060160006101000a81548173ffffffffffffffffffffffffffffffffffffffff021916908373ffffffffffffffffffffffffffffffffffffffff1602179055506101008201518160070160006101000a81548173ffffffffffffffffffffffffffffffffffffffff021916908373ffffffffffffffffffffffffffffffffffffffff16021790555061012082015181600801556101408201518160090160006101000a81548160ff0219169083151502179055509050508873ffffffffffffffffffffffffffffffffffffffff163373ffffffffffffffffffffffffffffffffffffffff168267ffffffffffffffff167fb8160cd5a5d5f01ed9352faa7324b9df403f9c15c1ed9ba8cb8ee8ddbd50b7488d8c8c8c8c604051611f6195949392919061331f565b60405180910390a480925050506001600081905550979650505050505050565b611f896122d4565b73ffffffffffffffffffffffffffffffffffffffff16611fa76117a0565b73ffffffffffffffffffffffffffffffffffffffff1614611ffd576040517f08c379a0000000000000000000000000000000000000000000000000000000008152600401611ff490613565565b60405180910390fd5b600073ffffffffffffffffffffffffffffffffffffffff168173ffffffffffffffffffffffffffffffffffffffff16141561206d576040517f08c379a000000000000000000000000000000000000000000000000000000000815260040161206490613425565b60405180910390fd5b8073ffffffffffffffffffffffffffffffffffffffff16600160009054906101000a900473ffffffffffffffffffffffffffffffffffffffff1673ffffffffffffffffffffffffffffffffffffffff167f8be0079c531659141344cd1fd0a4f28419497f9722a3daafe3b4186f6b6457e060405160405180910390a380600160006101000a81548173ffffffffffffffffffffffffffffffffffffffff021916908373ffffffffffffffffffffffffffffffffffffffff16021790555050565b600073ffffffffffffffffffffffffffffffffffffffff168273ffffffffffffffffffffffffffffffffffffffff1614156121a9578034146121a4576040517f08c379a000000000000000000000000000000000000000000000000000000000815260040161219b90613505565b60405180910390fd5b6121d7565b6121d63330838573ffffffffffffffffffffffffffffffffffffffff166122dc909392919063ffffffff16565b5b5050565b600073ffffffffffffffffffffffffffffffffffffffff168373ffffffffffffffffffffffffffffffffffffffff1614156122a35780600260008473ffffffffffffffffffffffffffffffffffffffff1673ffffffffffffffffffffffffffffffffffffffff1681526020019081526020016000205461225b91906136c9565b600260008473ffffffffffffffffffffffffffffffffffffffff1673ffffffffffffffffffffffffffffffffffffffff168152602001908152602001600020819055506122cf565b6122ce82828573ffffffffffffffffffffffffffffffffffffffff166123659092919063ffffffff16565b5b505050565b600033905090565b61235f846323b872dd60e01b8585856040516024016122fd939291906132bf565b604051602081830303815290604052907bffffffffffffffffffffffffffffffffffffffffffffffffffffffff19166020820180517bffffffffffffffffffffffffffffffffffffffffffffffffffffffff83818316178352505050506123eb565b50505050565b6123e68363a9059cbb60e01b84846040516024016123849291906132f6565b604051602081830303815290604052907bffffffffffffffffffffffffffffffffffffffffffffffffffffffff19166020820180517bffffffffffffffffffffffffffffffffffffffffffffffffffffffff83818316178352505050506123eb565b505050565b600061244d826040518060400160405280602081526020017f5361666545524332303a206c6f772d6c6576656c2063616c6c206661696c65648152508573ffffffffffffffffffffffffffffffffffffffff166124b29092919063ffffffff16565b90506000815111156124ad578080602001905181019061246d9190612988565b6124ac576040517f08c379a00000000000000000000000000000000000000000000000000000000081526004016124a390613605565b60405180910390fd5b5b505050565b60606124c184846000856124ca565b90509392505050565b60608247101561250f576040517f08c379a000000000000000000000000000000000000000000000000000000000815260040161250690613485565b60405180910390fd5b612518856125de565b612557576040517f08c379a000000000000000000000000000000000000000000000000000000000815260040161254e906135c5565b60405180910390fd5b6000808673ffffffffffffffffffffffffffffffffffffffff1685876040516125809190613278565b60006040518083038185875af1925050503d80600081146125bd576040519150601f19603f3d011682016040523d82523d6000602084013e6125c2565b606091505b50915091506125d28282866125f1565b92505050949350505050565b600080823b905060008111915050919050565b6060831561260157829050612651565b6000835111156126145782518084602001fd5b816040517f08c379a000000000000000000000000000000000000000000000000000000000815260040161264891906133c3565b60405180910390fd5b9392505050565b604051806101600160405280600073ffffffffffffffffffffffffffffffffffffffff168152602001600073ffffffffffffffffffffffffffffffffffffffff168152602001600073ffffffffffffffffffffffffffffffffffffffff1681526020016000815260200160008152602001600073ffffffffffffffffffffffffffffffffffffffff168152602001600015158152602001600073ffffffffffffffffffffffffffffffffffffffff168152602001600073ffffffffffffffffffffffffffffffffffffffff168152602001600081526020016000151581525090565b60008135905061274981613c03565b92915050565b60008135905061275e81613c1a565b92915050565b60008151905061277381613c1a565b92915050565b60008135905061278881613c31565b92915050565b60008083601f8401126127a057600080fd5b8235905067ffffffffffffffff8111156127b957600080fd5b6020830191508360018202830111156127d157600080fd5b9250929050565b6000813590506127e781613c48565b92915050565b6000813590506127fc81613c5f565b92915050565b60008135905061281181613c76565b92915050565b60008135905061282681613c8d565b92915050565b60008151905061283b81613c8d565b92915050565b60006020828403121561285357600080fd5b60006128618482850161273a565b91505092915050565b60008060008060006080868803121561288257600080fd5b60006128908882890161273a565b95505060206128a18882890161273a565b94505060406128b2888289016127ed565b935050606086013567ffffffffffffffff8111156128cf57600080fd5b6128db8882890161278e565b92509250509295509295909350565b600080600080600080600060e0888a03121561290557600080fd5b60006129138a828b0161273a565b97505060206129248a828b016127d8565b96505060406129358a828b016127ed565b95505060606129468a828b016127ed565b94505060806129578a828b01612817565b93505060a06129688a828b0161273a565b92505060c06129798a828b0161274f565b91505092959891949750929550565b60006020828403121561299a57600080fd5b60006129a884828501612764565b91505092915050565b6000602082840312156129c357600080fd5b60006129d184828501612779565b91505092915050565b6000602082840312156129ec57600080fd5b60006129fa848285016127ed565b91505092915050565b600060208284031215612a1557600080fd5b6000612a2384828501612802565b91505092915050565b600080600060608486031215612a4157600080fd5b6000612a4f86828701612802565b9350506020612a608682870161273a565b9250506040612a71868287016127ed565b9150509250925092565b600060208284031215612a8d57600080fd5b6000612a9b8482850161282c565b91505092915050565b612aad81613a49565b82525050565b612abc81613a49565b82525050565b612acb81613a5b565b82525050565b612ada81613a5b565b82525050565b612ae981613a67565b82525050565b6000612afa82613697565b612b0481856136ad565b9350612b14818560208601613b47565b80840191505092915050565b612b2981613b09565b82525050565b612b3881613b2d565b82525050565b6000612b49826136a2565b612b5381856136b8565b9350612b63818560208601613b47565b612b6c81613bd8565b840191505092915050565b6000612b846013836136b8565b91507f61756374696f6e20697320746f6f206c6f6e67000000000000000000000000006000830152602082019050919050565b6000612bc46017836136b8565b91507f616c7265616479207468652068696768206269646465720000000000000000006000830152602082019050919050565b6000612c046026836136b8565b91507f4f776e61626c653a206e6577206f776e657220697320746865207a65726f206160008301527f64647265737300000000000000000000000000000000000000000000000000006020830152604082019050919050565b6000612c6a6016836136b8565b91507f6c697374696e67206861732079657420746f20656e64000000000000000000006000830152602082019050919050565b6000612caa603a836136b8565b91507f70726963652069736e277420612076616c6964206d756c7469706c65206f662060008301527f746869732063757272656e6379277320707269636520756e69740000000000006020830152604082019050919050565b6000612d106026836136b8565b91507f416464726573733a20696e73756666696369656e742062616c616e636520666f60008301527f722063616c6c00000000000000000000000000000000000000000000000000006020830152604082019050919050565b6000612d76601c836136b8565b91507f6c697374696e672077617320616c72656164792070616964206f7574000000006000830152602082019050919050565b6000612db66015836136b8565b91507f6c697374696e6720646f65736e277420657869737400000000000000000000006000830152602082019050919050565b6000612df6602e836136b8565b91507f42696420616d6f756e742073686f756c64206265206d6f7265207468616e204e60008301527f6578742062696420616d6f756e740000000000000000000000000000000000006020830152604082019050919050565b6000612e5c6011836136b8565b91507f696e76616c6964204554482076616c75650000000000000000000000000000006000830152602082019050919050565b6000612e9c602b836136b8565b91507f6d61726b6574706c61636573206172656e277420616c6c6f776564206f6e207460008301527f6869732061756374696f6e0000000000000000000000000000000000000000006020830152604082019050919050565b6000612f02601a836136b8565b91507f736f6d656f6e6520656c73652073656e742075732061204e46540000000000006000830152602082019050919050565b6000612f426020836136b8565b91507f4f776e61626c653a2063616c6c6572206973206e6f7420746865206f776e65726000830152602082019050919050565b6000612f82600d836136b8565b91507f6c697374696e6720656e646564000000000000000000000000000000000000006000830152602082019050919050565b6000612fc26021836136b8565b91507f706c6174666f726d2069736e277420616e2045524337323120636f6e7472616360008301527f74000000000000000000000000000000000000000000000000000000000000006020830152604082019050919050565b60006130286000836136ad565b9150600082019050919050565b6000613042601d836136b8565b91507f416464726573733a2063616c6c20746f206e6f6e2d636f6e74726163740000006000830152602082019050919050565b60006130826010836136b8565b91507f707269636520697320746f6f206c6f77000000000000000000000000000000006000830152602082019050919050565b60006130c2602a836136b8565b91507f5361666545524332303a204552433230206f7065726174696f6e20646964206e60008301527f6f742073756363656564000000000000000000000000000000000000000000006020830152604082019050919050565b6000613128601f836136b8565b91507f5265656e7472616e637947756172643a207265656e7472616e742063616c6c006000830152602082019050919050565b610160820160008201516131726000850182612aa4565b5060208201516131856020850182612aa4565b5060408201516131986040850182612b20565b5060608201516131ab606085018261323c565b5060808201516131be608085018261323c565b5060a08201516131d160a0850182612aa4565b5060c08201516131e460c0850182612ac2565b5060e08201516131f760e0850182612aa4565b5061010082015161320c610100850182612aa4565b5061012082015161322161012085018261323c565b50610140820151613236610140850182612ac2565b50505050565b61324581613ade565b82525050565b61325481613ade565b82525050565b61326381613ae8565b82525050565b61327281613afc565b82525050565b60006132848284612aef565b915081905092915050565b600061329a8261301b565b9150819050919050565b60006020820190506132b96000830184612ab3565b92915050565b60006060820190506132d46000830186612ab3565b6132e16020830185612ab3565b6132ee604083018461324b565b949350505050565b600060408201905061330b6000830185612ab3565b613318602083018461324b565b9392505050565b600060a0820190506133346000830188612ab3565b613341602083018761324b565b61334e604083018661324b565b61335b6060830185613269565b6133686080830184612ab3565b9695505050505050565b60006020820190506133876000830184612ad1565b92915050565b60006020820190506133a26000830184612ae0565b92915050565b60006020820190506133bd6000830184612b2f565b92915050565b600060208201905081810360008301526133dd8184612b3e565b905092915050565b600060208201905081810360008301526133fe81612b77565b9050919050565b6000602082019050818103600083015261341e81612bb7565b9050919050565b6000602082019050818103600083015261343e81612bf7565b9050919050565b6000602082019050818103600083015261345e81612c5d565b9050919050565b6000602082019050818103600083015261347e81612c9d565b9050919050565b6000602082019050818103600083015261349e81612d03565b9050919050565b600060208201905081810360008301526134be81612d69565b9050919050565b600060208201905081810360008301526134de81612da9565b9050919050565b600060208201905081810360008301526134fe81612de9565b9050919050565b6000602082019050818103600083015261351e81612e4f565b9050919050565b6000602082019050818103600083015261353e81612e8f565b9050919050565b6000602082019050818103600083015261355e81612ef5565b9050919050565b6000602082019050818103600083015261357e81612f35565b9050919050565b6000602082019050818103600083015261359e81612f75565b9050919050565b600060208201905081810360008301526135be81612fb5565b9050919050565b600060208201905081810360008301526135de81613035565b9050919050565b600060208201905081810360008301526135fe81613075565b9050919050565b6000602082019050818103600083015261361e816130b5565b9050919050565b6000602082019050818103600083015261363e8161311b565b9050919050565b60006101608201905061365b600083018461315b565b92915050565b6000602082019050613676600083018461324b565b92915050565b6000602082019050613691600083018461325a565b92915050565b600081519050919050565b600081519050919050565b600081905092915050565b600082825260208201905092915050565b60006136d482613ade565b91506136df83613ade565b9250827fffffffffffffffffffffffffffffffffffffffffffffffffffffffffffffffff0382111561371457613713613b7a565b5b828201905092915050565b600061372a82613ae8565b915061373583613ae8565b92508267ffffffffffffffff0382111561375257613751613b7a565b5b828201905092915050565b600061376882613ade565b915061377383613ade565b92508261378357613782613ba9565b5b828204905092915050565b6000808291508390505b60018511156137d8578086048111156137b4576137b3613b7a565b5b60018516156137c35780820291505b80810290506137d185613bf6565b9450613798565b94509492505050565b60006137ec82613ade565b91506137f783613ade565b92506138247fffffffffffffffffffffffffffffffffffffffffffffffffffffffffffffffff8484613877565b905092915050565b600061383782613ade565b915061384283613afc565b925061386f7fffffffffffffffffffffffffffffffffffffffffffffffffffffffffffffffff8484613877565b905092915050565b6000826138875760019050613943565b816138955760009050613943565b81600181146138ab57600281146138b5576138e4565b6001915050613943565b60ff8411156138c7576138c6613b7a565b5b8360020a9150848211156138de576138dd613b7a565b5b50613943565b5060208310610133831016604e8410600b84101617156139195782820a90508381111561391457613913613b7a565b5b613943565b613926848484600161378e565b9250905081840481111561393d5761393c613b7a565b5b81810290505b9392505050565b600061395582613acf565b915061396083613acf565b92508162ffffff048311821515161561397c5761397b613b7a565b5b828202905092915050565b600061399282613ade565b915061399d83613ade565b9250817fffffffffffffffffffffffffffffffffffffffffffffffffffffffffffffffff04831182151516156139d6576139d5613b7a565b5b828202905092915050565b60006139ec82613ade565b91506139f783613ade565b925082821015613a0a57613a09613b7a565b5b828203905092915050565b6000613a2082613afc565b9150613a2b83613afc565b925082821015613a3e57613a3d613b7a565b5b828203905092915050565b6000613a5482613aaf565b9050919050565b60008115159050919050565b60007fffffffff0000000000000000000000000000000000000000000000000000000082169050919050565b6000613a9e82613a49565b9050919050565b6000819050919050565b600073ffffffffffffffffffffffffffffffffffffffff82169050919050565b600062ffffff82169050919050565b6000819050919050565b600067ffffffffffffffff82169050919050565b600060ff82169050919050565b6000613b1482613b1b565b9050919050565b6000613b2682613aaf565b9050919050565b6000613b40613b3b83613aa5565b613be9565b9050919050565b60005b83811015613b65578082015181840152602081019050613b4a565b83811115613b74576000848401525b50505050565b7f4e487b7100000000000000000000000000000000000000000000000000000000600052601160045260246000fd5b7f4e487b7100000000000000000000000000000000000000000000000000000000600052601260045260246000fd5b6000601f19601f8301169050919050565b60008160e01b9050919050565b60008160011c9050919050565b613c0c81613a49565b8114613c1757600080fd5b50565b613c2381613a5b565b8114613c2e57600080fd5b50565b613c3a81613a67565b8114613c4557600080fd5b50565b613c5181613a93565b8114613c5c57600080fd5b50565b613c6881613ade565b8114613c7357600080fd5b50565b613c7f81613ae8565b8114613c8a57600080fd5b50565b613c9681613afc565b8114613ca157600080fd5b5056fea26469706673582212205ccac81b5d2ce8be02711bee045120a54c9e64ea0a94c229eab857c1bf86263764736f6c63430008000033",
  "immutableReferences": {},
  "source": "// SPDX-License-Identifier: MIT\r\n\r\nimport \"./ReentrancyGuard.sol\";\r\nimport \"./Ownable.sol\";\r\nimport \"./IDecimals.sol\";\r\nimport \"./IERC20.sol\";\r\nimport \"./SafeERC20.sol\";\r\nimport \"./IERC721.sol\";\r\nimport \"./IERC721Receiver.sol\";\r\n\r\npragma solidity ^0.8.0;\r\n\r\ncontract Bidify is ReentrancyGuard, Ownable, IERC165 {\r\n  using SafeERC20 for IERC20;\r\n\r\n  // All prices will now be 0.0001, 0.0002, 0.0010...\r\n  // For coins with less accuracy, such as USD stablecoins, it'll be 0.01, 0.02...\r\n  uint8 constant DECIMAL_ACCURACY = 4;\r\n\r\n  // Time to extend the auction by if a last minute bid appears\r\n  uint256 constant EXTENSION_TIMER = 3 minutes;\r\n\r\n  mapping(address => uint256) private _balances;\r\n\r\n  // Lack of payable on addresses due to usage of call\r\n  struct Listing {\r\n    address creator;\r\n    address currency;\r\n    IERC721 platform;\r\n    uint256 token;\r\n    uint256 price;\r\n    address referrer;\r\n    bool allowMarketplace;\r\n    address marketplace;\r\n    address highBidder;\r\n    uint256 endTime;\r\n    bool paidOut;\r\n  }\r\n\r\n  mapping(uint256 => Listing) private _listings;\r\n  uint64 private _nextListing;\r\n  uint256 _lastReceived;\r\n\r\n  event ListingCreated(uint64 indexed id, address indexed creator, address currency,\r\n                         address indexed platform, uint256 token, uint256 price,\r\n                         uint8 timeInDays, address referrer);\r\n  event Bid(uint64 indexed id, address indexed bidder, uint256 price);\r\n  event AuctionExtended(uint64 indexed id, uint256 time);\r\n  event AuctionFinished(uint64 indexed id, address indexed nftRecipient, uint256 price);\r\n\r\n  // Fallbacks to return ETH flippantly sent\r\n  receive() payable external {\r\n    require(false);\r\n  }\r\n  fallback() payable external {\r\n    require(false);\r\n  }\r\n\r\n  constructor() Ownable() {}\r\n\r\n  // Support receiving NFTs\r\n  function supportsInterface(bytes4 interfaceId) external pure override returns (bool) {\r\n    return interfaceId == 0x150b7a02;\r\n  }\r\n  function onERC721Received(address operator, address, uint256 tokenId, bytes calldata) external returns (bytes4) {\r\n    require(operator == address(this), \"someone else sent us a NFT\");\r\n    _lastReceived = tokenId;\r\n    return IERC721Receiver.onERC721Received.selector;\r\n  }\r\n\r\n  // Get the minimum accuracy unit for a given accuracy\r\n  function getPriceUnit(address currency) public view returns (uint256) {\r\n    if (currency == address(0)) {\r\n      return 10 ** (18 - DECIMAL_ACCURACY);\r\n    }\r\n\r\n    // This technically doesn't work with all ERC20s\r\n    // The decimals method is optional, hence the custom interface\r\n    // That said, it is in almost every ERC20, a requirement for this, and needed for feasible operations with wrapped coins\r\n    uint256 decimals = IDecimals(currency).decimals();\r\n\r\n    if (decimals <= DECIMAL_ACCURACY) {\r\n      return 1;\r\n    }\r\n    return 10 ** (decimals - DECIMAL_ACCURACY);\r\n  }\r\n\r\n  // Only safe to call once per function due to how ETH is handled\r\n  // transferFrom(5) + transferFrom(5) is just 5 on ETH; not 10\r\n  function universalSingularTransferFrom(address currency, uint256 amount) internal {\r\n    if (currency == address(0)) {\r\n      require(msg.value == amount, \"invalid ETH value\");\r\n    } else {\r\n      IERC20(currency).safeTransferFrom(msg.sender, address(this), amount);\r\n    }\r\n  }\r\n\r\n  function universalTransfer(address currency, address dest, uint256 amount) internal {\r\n    if (currency == address(0)) {\r\n      _balances[dest] = _balances[dest] + amount;\r\n    } else {\r\n      IERC20(currency).safeTransfer(dest, amount);\r\n    }\r\n  }\r\n\r\n  function balanceOf(address account) external view returns (uint256) {\r\n    return _balances[account];\r\n  }\r\n\r\n  // This guard shouldn't be needed, at all, due to the CEI pattern\r\n  // This function is too critical to not warrant the extra gas though\r\n  function withdraw(address account) external nonReentrant {\r\n    uint256 balance = _balances[account];\r\n    _balances[account] = 0;\r\n    (bool success,) = account.call{value: balance}(\"\");\r\n    require(success);\r\n  }\r\n\r\n  function getListing(uint256 id) external view returns (Listing memory) {\r\n    return _listings[id];\r\n  }\r\n\r\n  function list(address currency, IERC721 platform, uint256 token, uint256 price,\r\n                  uint8 timeInDays, address referrer, bool allowMarketplace) external nonReentrant returns (uint64) {\r\n    // Make sure platform is a valid ERC721 contract\r\n    // The usage of safeTransferFrom should handle this, but this never hurts\r\n    require(platform.supportsInterface(0x80ac58cd), \"platform isn't an ERC721 contract\");\r\n\r\n    uint256 unit = getPriceUnit(currency);\r\n    // Minimum price check to ensure getNextBid doesn't flatline\r\n    require(price >= (20 * unit), \"price is too low\");\r\n    // Ensure it's a multiple of the price unit\r\n    require(((price / unit) * unit) == price, \"price isn't a valid multiple of this currency's price unit\");\r\n    require(timeInDays <= 30, \"auction is too long\");\r\n\r\n    uint64 id = _nextListing;\r\n    _nextListing = _nextListing + 1;\r\n\r\n    // Re-entrancy opportunity\r\n    // Given the usage of _lastReceived when we create the listing object, this does need the guard\r\n    platform.safeTransferFrom(msg.sender, address(this), token);\r\n\r\n    _listings[id] = Listing(\r\n      msg.sender,\r\n      currency,\r\n      platform,\r\n      _lastReceived,\r\n      price,\r\n      referrer,\r\n      allowMarketplace,\r\n      address(0),\r\n      address(0),\r\n      block.timestamp + (timeInDays * (1 days)),\r\n      false\r\n    );\r\n    emit ListingCreated(id, msg.sender, currency, address(platform), token, price, timeInDays, referrer);\r\n\r\n    return id;\r\n  }\r\n\r\n  function getNextBid(uint64 id) public view returns (uint256) {\r\n    // Increment by 5% at a time, rounding to the price unit\r\n    // This has two effects; stopping micro-bids, which isn't too relevant due to Eth gas fees\r\n    // It also damages marking up. If a NFT is at 1 ETH, this prevents doing 1.0001 ETH to immediately resell\r\n    // This requires doing at least 1.05 ETH, a much more noticeable amount\r\n    // This would risk flatlining (1 -> 1 -> 1) except there is a minimal list price of 20 units\r\n    Listing memory listing = _listings[id];\r\n    if (listing.highBidder == address(0)) {\r\n      return listing.price;\r\n    }\r\n    uint256 round = getPriceUnit(listing.currency);\r\n    return ((listing.price + (listing.price / 20)) / round) * round;\r\n  }\r\n\r\n  function bid(uint64 id, address marketplace, uint256 amount) external payable nonReentrant {\r\n    // Make sure the auction exists\r\n    // Only works because list and bid have a shared reentrancy guard\r\n    require(id < _nextListing, \"listing doesn't exist\");\r\n    Listing storage listing = _listings[id];\r\n\r\n    require(listing.highBidder != msg.sender, \"already the high bidder\");\r\n    require(block.timestamp < listing.endTime, \"listing ended\");\r\n    if (!listing.allowMarketplace) {\r\n      require(marketplace == address(0), \"marketplaces aren't allowed on this auction\");\r\n    }\r\n\r\n    uint256 nextBid = getNextBid(id);\r\n    require(nextBid < amount, \"Bid amount should be more than Next bid amount\");\r\n    // This loses control of execution, yet no variables are set yet\r\n    // This means no interim state will be represented if asked\r\n    // Combined with the re-entrancy guard, this is secure\r\n    universalSingularTransferFrom(listing.currency, amount);\r\n\r\n    // We could grab price below, and then set, yet the lost contract execution is risky\r\n    // Despite the lack of re-entrancy, the metadata would be wrong, if asked for\r\n    uint256 oldPrice = listing.price;\r\n    address oldBidder = listing.highBidder;\r\n\r\n    // Note the new highest bidder\r\n    listing.price = amount;\r\n    listing.highBidder = msg.sender;\r\n    listing.marketplace = marketplace;\r\n    emit Bid(id, msg.sender, listing.price);\r\n\r\n    // Prevent sniping via extending the bid timer, if this was last-minute\r\n    if ((block.timestamp + EXTENSION_TIMER) > listing.endTime) {\r\n      listing.endTime = block.timestamp + EXTENSION_TIMER;\r\n      emit AuctionExtended(id, listing.endTime);\r\n    }\r\n\r\n    // Pay back the old bidder who is now out of the game\r\n    // Okay to lose execution as this is the end of the function\r\n    if (oldBidder != address(0)) {\r\n      universalTransfer(listing.currency, oldBidder, oldPrice);\r\n    }\r\n  }\r\n\r\n  function finish(uint64 id) external nonReentrant {\r\n    require(id < _nextListing, \"listing doesn't exist\");\r\n\r\n    Listing storage listing = _listings[id];\r\n    require(listing.endTime <= block.timestamp, \"listing has yet to end\");\r\n\r\n    // These two lines make re-entrancy a non-issue\r\n    // That said, this is critical to no be re-entrant, hence why the guard remains\r\n    // It should only removed to save a microscopic amount of gas\r\n    // Speaking of re-entrancy, any external contract which gains control will mis-interpret the metadata\r\n    // Since we do multiple partial payouts, we can either claim not paid out or paid out and be incorrect either way\r\n    // Or we can add a third state \"paying out\" for an extremely niche mid-payout re-entrant (on the contract level) case\r\n    // This just claims paid out and moves on\r\n    require(!listing.paidOut, \"listing was already paid out\");\r\n    listing.paidOut = true;\r\n\r\n    // The NFT goes to someone, yet if it's the creator/highBidder is undetermined\r\n    address nftRecipient;\r\n    // Set to 0 if there were no bidders\r\n    uint256 sellPrice = listing.price;\r\n    // If there was a bidder...\r\n    if (listing.highBidder != address(0)) {\r\n      // 4% fee\r\n      uint256 originalFees = listing.price / 25;\r\n      uint256 ownerFees = originalFees;\r\n\r\n      // Half goes to the referrer, if one exists\r\n      if (listing.referrer != address(0)) {\r\n        ownerFees /= 2;\r\n        uint256 referrerFees = ownerFees;\r\n        // If a marketplace (the referrer for the bidder, versus the seller) exists\r\n        // They get half the referral fees\r\n        if (listing.marketplace != address(0)) {\r\n          referrerFees /= 2;\r\n          universalTransfer(listing.currency, listing.marketplace, referrerFees);\r\n        }\r\n        universalTransfer(listing.currency, listing.referrer, referrerFees);\r\n      } else {\r\n        // Handle no referrer yet marketplace\r\n        if (listing.marketplace != address(0)) {\r\n          ownerFees /= 2;\r\n          // Misuse of ownerFees variable, yet avoids the referrerFees variable definition\r\n          universalTransfer(listing.currency, listing.marketplace, ownerFees);\r\n        }\r\n      }\r\n\r\n      // Rest of the fees goes to the platform's creators\r\n      universalTransfer(listing.currency, owner(), ownerFees);\r\n\r\n      // Pay out the listing (post fees)\r\n      universalTransfer(listing.currency, listing.creator, listing.price - originalFees);\r\n\r\n      // Note the NFT recipient\r\n      nftRecipient = listing.highBidder;\r\n    // Else, restore ownership to the owner\r\n    } else {\r\n      nftRecipient = listing.creator;\r\n      sellPrice = 0;\r\n    }\r\n\r\n    listing.platform.safeTransferFrom(address(this), nftRecipient, listing.token);\r\n    emit AuctionFinished(id, nftRecipient, sellPrice);\r\n  }\r\n}\r\n",
  "sourcePath": "D:\\work\\blockchain\\2021_11_15_crytosi_project\\Bidify_UI_HarutoHanai\\contracts\\Bidify.sol",
  "compiler": {
    "name": "solc",
    "version": "0.8.0+commit.c7dfd78e.Emscripten.clang"
  },
  "schemaVersion": "3.4.3",
  "updatedAt": "2021-11-16T00:09:06.646Z",
  "networkType": "ethereum",
  "devdoc": {
    "kind": "dev",
    "methods": {
      "owner()": {
        "details": "Returns the address of the current owner."
      },
      "renounceOwnership()": {
        "details": "Leaves the contract without owner. It will not be possible to call `onlyOwner` functions anymore. Can only be called by the current owner. NOTE: Renouncing ownership will leave the contract without an owner, thereby removing any functionality that is only available to the owner."
      },
      "supportsInterface(bytes4)": {
        "details": "Returns true if this contract implements the interface defined by `interfaceId`. See the corresponding https://eips.ethereum.org/EIPS/eip-165#how-interfaces-are-identified[EIP section] to learn more about how these ids are created. This function call must use less than 30 000 gas."
      },
      "transferOwnership(address)": {
        "details": "Transfers ownership of the contract to a new account (`newOwner`). Can only be called by the current owner."
      }
    },
    "version": 1
  },
  "userdoc": {
    "kind": "user",
    "methods": {},
    "version": 1
  }
}